:020000040800F2
:100000000000082071030008C1030008C1030008B4
:10001000C1030008C1030008C1030008000000007C
:10002000000000000000000000000000C103000804
:10003000C103000800000000C1030008C10300085C
:10004000C1030008C1030008C1030008C103000880
:10005000C1030008C1030008C1030008C103000870
:10006000C1030008C1030008C1030008C103000860
:10007000C1030008C1030008C1030008C103000850
:10008000C1030008C1030008C1030008C103000840
:10009000C1030008C1030008C1030008C103000830
:1000A000C1030008C1030008C1030008C103000820
:1000B000C1030008C1030008C1030008C103000810
:1000C000C1030008C1030008C1030008C103000800
:1000D000C1030008C1030008C1030008C1030008F0
:1000E000C1030008C1030008C1030008C1030008E0
:1000F000C1030008C1030008C1030008C1030008D0
:10010000C1030008C1030008C1030008C1030008BF
:10011000C1030008C1030008C1030008C1030008AF
:10012000C1030008C1030008C1030008C10300089F
:10013000C1030008C1030008C1030008C10300088F
:10014000C1030008C1030008C1030008C10300087F
:10015000C1030008C1030008C1030008C10300086F
:10016000C1030008C1030008C1030008C10300085F
:10017000C1030008C1030008C1030008000000001B
:10018000C1030008C1030008C1030008C10300083F
:10019000C1030008C1030008C1030008C10300082F
:1001A000C1030008C1030008C1030008C10300081F
:1001B000C1030008C1030008C1030008C10300080F
:1001C000C1030008C103000800000000C1030008CB
:1001D000C1030008C1030008C1030008C1030008EF
:1001E000C1030008C1030008C1030008C1030008DF
:0801F000C1030008C10300086F
:1001F8000348044B834202D0034B03B118477047AE
:100208003C0400203C04002000000000054806498A
:10021800091A891001EBD171491002D0034B03B1BF
:10022800184770473C0400203C04002000000000F0
:1002380010B5064C237843B9FFF7DAFF044B13B126
:100248000448AFF300800123237010BD3C04002054
:1002580000000000F408000808B5044B1BB104496D
:100268000448AFF30080BDE80840CFE70000000075
:1002780040040020F4080008002301461A461846E6
:1002880000F03EB838B50A4C0A4D641BA4100AD0D9
:1002980004F18043013B05EB8305013C55F8043923
:1002A8009847002CF9D1BDE8384000F025BB00BFC5
:1002B800240900082009000870B50D4E0D4D761B65
:1002C800B61006D00024013455F8043B9847A642DE
:1002D800F9D1094E094D761B00F008FBB61006D07F
:1002E8000024013455F8043B9847A642F9D170BD63
:1002F800180900081809000820090008180900084A
:10030800F0B4184C2568D5F8484114B365681F2D1A
:1003180024DC38B9AB1C0135656044F82310002093
:10032800F0BC704704EB85060127C6F8882007FA59
:1003380005F2D4F88871022847EA0207C4F88871E0
:10034800C6F80831E6D1D4F88C311A43C4F88C21A8
:10035800E0E705F5A674C5F84841D7E74FF0FF3048
:10036800DEE700BF0C090008DFF834D0002103E005
:100378000C4B5B58435004310B480C4B42189A42C3
:10038800F6D30B4A02E0002342F8043B094B9A4299
:10039800F9D300F049F8FFF78FFF00F00FF8704726
:1003A8000000082024090008000000203C04002068
:1003B8003C04002058040020FEE7000080B584B00B
:1003C80000AF002000F046F8012000F043F80220BA
:1003D80000F040F8002000F089F80023FB6002E0FC
:1003E800FB680133FB60FB680E4A9342F8DD01208D
:1003F80000F07CF80023BB6002E0BB680133BB60FF
:10040800BB68084A9342F8DD022000F06FF8002329
:100418007B6002E07B6801337B607B68014A934222
:10042800F8DDD7E79F86010080B400AF084BD3F80A
:100438008830074A43F47003C2F88830044B4FF001
:1004480000629A6000BFBD465DF8047B704700BF3C
:1004580000ED00E080B58AB000AF0346FB71FB7980
:10046800002B0CD11E4B1B6B1D4A43F00203136378
:100478001B4B1B6B03F002033B613B690BE0184B02
:100488001B6B174A43F002031363154B1B6B03F0F6
:100498000203FB60FB68FB79124A32F813307B6178
:1004A8000123BB610023FB6103233B62FB790E4AF6
:1004B80052F8233007F114021146184600F02EF8BE
:1004C800FB79094A52F82300FB79064A32F81330BF
:1004D8000022194600F0CCF900BF2837BD4680BD80
:1004E80000380240100900083004002080B582B0AE
:1004F80000AF0346FB71FB79064A52F82300FB79EB
:10050800054A32F81330194600F0CBF900BF083716
:10051800BD4680BD300400201009000880B489B0B1
:1005280000AF786039600023FB6100237B61002302
:100538003B610023BB610023FB6175E10122FB697C
:1005480002FA03F37B613B681B687A6913403B61DD
:100558003A697B699A4240F064813B685B68012B89
:100568000BD03B685B68022B07D03B685B68112B9C
:1005780003D03B685B68122B30D17B689B68BB61FA
:10058800FB695B00032202FA03F3DB43BA691340F9
:10059800BB613B68DA68FB695B0002FA03F3BA697E
:1005A8001343BB617B68BA699A607B685B68BB610F
:1005B8000122FB6902FA03F3DB43BA691340BB610A
:1005C8003B685B681B0903F00102FB6902FA03F34D
:1005D800BA691343BB617B68BA695A607B68DB6898
:1005E800BB61FB695B00032202FA03F3DB43BA69D0
:1005F8001340BB613B689A68FB695B0002FA03F32E
:10060800BA691343BB617B68BA69DA603B685B68A7
:10061800022B03D03B685B68122B23D1FB69DA08F5
:100628007B68083253F82230BB61FB6903F007038B
:100638009B000F2202FA03F3DB43BA691340BB6144
:100648003B681A69FB6903F007039B0002FA03F38E
:10065800BA691343BB61FB69DA087B680832B96978
:1006680043F822107B681B68BB61FB695B000322AF
:1006780002FA03F3DB43BA691340BB613B685B686A
:1006880003F00302FB695B0002FA03F3BA69134340
:10069800BB617B68BA691A603B685B6803F080538A
:1006A800002B00F0BE80654B5B6C644A43F48043CA
:1006B8005364624B5B6C03F48043FB60FB68604AE5
:1006C800FB699B08023352F82330BB61FB6903F0D6
:1006D80003039B000F2202FA03F3DB43BA691340BA
:1006E800BB617B68574A934237D07B68564A93422E
:1006F80031D07B68554A93422BD07B68544A934249
:1007080025D07B68534A93421FD07B68524A934254
:1007180019D07B68514A934213D07B68504A934260
:100728000DD07B684F4A934207D07B684E4A93426C
:1007380001D1092312E00A2310E008230EE0072361
:100748000CE006230AE0052308E0042306E003235F
:1007580004E0022302E0012300E00023FA6902F02A
:10076800030292009340BA691343BB613449FB69A1
:100778009B080233BA6941F823203C4B1B68BB61D4
:100788003B69DB43BA691340BB613B685B6803F4B0
:100798008033002B03D0BA693B691343BB61334AEA
:1007A800BB691360314B5B68BB613B69DB43BA696A
:1007B8001340BB613B685B6803F40033002B03D034
:1007C800BA693B691343BB61284ABB695360274B2D
:1007D8009B68BB613B69DB43BA691340BB613B68FB
:1007E8005B6803F48013002B03D0BA693B69134399
:1007F800BB611E4ABB6993601C4BDB68BB613B69EC
:10080800DB43BA691340BB613B685B6803F40013C0
:10081800002B03D0BA693B691343BB61134ABB6918
:10082800D360FB690133FB61FB690F2B7FF686AE52
:1008380000BF2437BD465DF8047B7047003802408E
:100848000038014000000240000402400008024055
:10085800000C024000100240001402400018024040
:10086800001C02400020024000240240003C0140DD
:1008780080B483B000AF78600B467B8013467B70F2
:100888007B78002B03D07A887B689A6103E07B88A9
:100898001A047B689A6100BF0C37BD465DF8047B7B
:1008A800704780B483B000AF78600B467B807B686C
:1008B8005A697B881340002B04D07B881A047B6814
:1008C8009A6102E07A887B689A6100BF0C37BD465E
:1008D8005DF8047B70470000024B13B10248FFF734
:1008E800CBBC7047000000008D020008F8B500BFBF
:1008F800F8BC08BC9E467047F8B500BFF8BC08BCF9
:040908009E46704750
:0C090C00080000200100800000400000F6
:08091800E1080008610200087B
:040920003902000890
:10092400080000200000000000000000F402002085
:100934005C030020C403002000000000000000004D
:1009440000000000000000000000000000000000A3
:100954000000000000000000000000000000000093
:100964000000000000000000000000000000000083
:100974000000000000000000000000000000000073
:100984000000000000000000000000000000000063
:100994000000000000000000000000000000000053
:1009A4000000000000000000000000000000000043
:1009B4000000000000000000000000000000000033
:1009C4000000000000000000000000000000000023
:1009D40001000000000000000E33CDAB34126DE6C0
:1009E400ECDE05000B000000000000000000000029
:1009F40000000000000000000000000000000000F3
:100A040000000000000000000000000000000000E2
:100A140000000000000000000000000000000000D2
:100A240000000000000000000000000000000000C2
:04000005080003717B
:00000001FF
